{
  "_format": "hh-sol-artifact-1",
  "contractName": "CareerFair",
  "sourceName": "contracts/CareerFair.sol",
  "abi": [
    {
      "inputs": [],
      "stateMutability": "nonpayable",
      "type": "constructor"
    },
    {
      "inputs": [
        {
          "internalType": "string",
          "name": "companyName",
          "type": "string"
        }
      ],
      "name": "add",
      "outputs": [],
      "stateMutability": "nonpayable",
      "type": "function"
    },
    {
      "inputs": [],
      "name": "enroll",
      "outputs": [],
      "stateMutability": "nonpayable",
      "type": "function"
    },
    {
      "inputs": [],
      "name": "getAttendees",
      "outputs": [
        {
          "internalType": "address[]",
          "name": "",
          "type": "address[]"
        }
      ],
      "stateMutability": "view",
      "type": "function"
    },
    {
      "inputs": [],
      "name": "getCompanies",
      "outputs": [
        {
          "internalType": "string[]",
          "name": "",
          "type": "string[]"
        }
      ],
      "stateMutability": "view",
      "type": "function"
    },
    {
      "inputs": [],
      "name": "unenroll",
      "outputs": [],
      "stateMutability": "nonpayable",
      "type": "function"
    }
  ],
  "bytecode": "0x608060405234801561001057600080fd5b50336000806101000a81548173ffffffffffffffffffffffffffffffffffffffff021916908373ffffffffffffffffffffffffffffffffffffffff1602179055506118a8806100606000396000f3fe608060405234801561001057600080fd5b50600436106100575760003560e01c80630c0b66911461005c57806320f3b4181461007a5780634165a1bb14610084578063b0c8f9dc146100a2578063e65f2a7e146100be575b600080fd5b6100646100c8565b6040516100719190610f36565b60405180910390f35b6100826102ef565b005b61008c6104c2565b6040516100999190611048565b60405180910390f35b6100bc60048036038101906100b791906111b3565b610550565b005b6100c6610738565b005b60606101086040518060400160405280600b81526020017f0a436f6d70616e6965733a000000000000000000000000000000000000000000815250610970565b60005b6002805490508110156102175761020a6040518060400160405280600681526020017f25733a202573000000000000000000000000000000000000000000000000000081525060018361015e9190611235565b6002848154811061017257610171611269565b5b906000526020600020018054610187906112c7565b80601f01602080910402602001604051908101604052809291908181526020018280546101b3906112c7565b80156102005780601f106101d557610100808354040283529160200191610200565b820191906000526020600020905b8154815290600101906020018083116101e357829003601f168201915b5050505050610a09565b808060010191505061010b565b506002805480602002602001604051908101604052809291908181526020016000905b828210156102e6578382906000526020600020018054610259906112c7565b80601f0160208091040260200160405190810160405280929190818152602001828054610285906112c7565b80156102d25780601f106102a7576101008083540402835291602001916102d2565b820191906000526020600020905b8154815290600101906020018083116102b557829003601f168201915b50505050508152602001906001019061023a565b50505050905090565b600060018054905011610337576040517f08c379a000000000000000000000000000000000000000000000000000000000815260040161032e90611355565b60405180910390fd5b60005b6001805490508110156104b7573373ffffffffffffffffffffffffffffffffffffffff166001828154811061037257610371611269565b5b9060005260206000200160000160009054906101000a900473ffffffffffffffffffffffffffffffffffffffff1673ffffffffffffffffffffffffffffffffffffffff16036104aa5760011515600182815481106103d3576103d2611269565b5b9060005260206000200160000160149054906101000a900460ff16151514610430576040517f08c379a0000000000000000000000000000000000000000000000000000000008152600401610427906113c1565b60405180910390fd5b60006001828154811061044657610445611269565b5b9060005260206000200160000160146101000a81548160ff0219169083151502179055506104a96040518060400160405280601781526020017f0a53747564656e7420257320756e656e726f6c6c65642e00000000000000000081525033610aa8565b5b808060010191505061033a565b506104c0610b44565b565b6060600380548060200260200160405190810160405280929190818152602001828054801561054657602002820191906000526020600020905b8160009054906101000a900473ffffffffffffffffffffffffffffffffffffffff1673ffffffffffffffffffffffffffffffffffffffff16815260200190600101908083116104fc575b5050505050905090565b60008054906101000a900473ffffffffffffffffffffffffffffffffffffffff1673ffffffffffffffffffffffffffffffffffffffff163373ffffffffffffffffffffffffffffffffffffffff16146105a857600080fd5b60005b6002805490508110156106bf57610668600282815481106105cf576105ce611269565b5b9060005260206000200180546105e4906112c7565b80601f0160208091040260200160405190810160405280929190818152602001828054610610906112c7565b801561065d5780601f106106325761010080835404028352916020019161065d565b820191906000526020600020905b81548152906001019060200180831161064057829003601f168201915b505050505083610c51565b156106b2576106ac6040518060400160405280601181526020017f257320616c72656164792061646465642e00000000000000000000000000000081525083610cba565b50610735565b80806001019150506105ab565b506002819080600181540180825580915050600190039060005260206000200160009091909190915090816106f4919061158d565b506107346040518060400160405280600981526020017f25732061646465642e000000000000000000000000000000000000000000000081525082610cba565b5b50565b60005b60018054905081101561083f573373ffffffffffffffffffffffffffffffffffffffff166001828154811061077357610772611269565b5b9060005260206000200160000160009054906101000a900473ffffffffffffffffffffffffffffffffffffffff1673ffffffffffffffffffffffffffffffffffffffff16036108325760001515600182815481106107d4576107d3611269565b5b9060005260206000200160000160149054906101000a900460ff16151514610831576040517f08c379a0000000000000000000000000000000000000000000000000000000008152600401610828906116ab565b60405180910390fd5b5b808060010191505061073b565b50600160405180606001604052803373ffffffffffffffffffffffffffffffffffffffff168152602001600115158152602001600115158152509080600181540180825580915050600190039060005260206000200160009091909190915060008201518160000160006101000a81548173ffffffffffffffffffffffffffffffffffffffff021916908373ffffffffffffffffffffffffffffffffffffffff16021790555060208201518160000160146101000a81548160ff02191690831515021790555060408201518160000160156101000a81548160ff02191690831515021790555050506109666040518060400160405280601281526020017f53747564656e74732025732061646465642e000000000000000000000000000081525033610aa8565b61096e610b44565b565b610a06816040516024016109849190611704565b6040516020818303038152906040527f41304fac000000000000000000000000000000000000000000000000000000007bffffffffffffffffffffffffffffffffffffffffffffffffffffffff19166020820180517bffffffffffffffffffffffffffffffffffffffffffffffffffffffff8381831617835250505050610d56565b50565b610aa3838383604051602401610a2193929190611735565b6040516020818303038152906040527f5970e089000000000000000000000000000000000000000000000000000000007bffffffffffffffffffffffffffffffffffffffffffffffffffffffff19166020820180517bffffffffffffffffffffffffffffffffffffffffffffffffffffffff8381831617835250505050610d56565b505050565b610b408282604051602401610abe929190611789565b6040516020818303038152906040527f319af333000000000000000000000000000000000000000000000000000000007bffffffffffffffffffffffffffffffffffffffffffffffffffffffff19166020820180517bffffffffffffffffffffffffffffffffffffffffffffffffffffffff8381831617835250505050610d56565b5050565b60036000610b529190610d9c565b60005b600180549050811015610c4e576001151560018281548110610b7a57610b79611269565b5b9060005260206000200160000160149054906101000a900460ff16151503610c4157600360018281548110610bb257610bb1611269565b5b9060005260206000200160000160009054906101000a900473ffffffffffffffffffffffffffffffffffffffff169080600181540180825580915050600190039060005260206000200160009091909190916101000a81548173ffffffffffffffffffffffffffffffffffffffff021916908373ffffffffffffffffffffffffffffffffffffffff1602179055505b8080600101915050610b55565b50565b600081604051602001610c6491906117f5565b6040516020818303038152906040528051906020012083604051602001610c8b91906117f5565b6040516020818303038152906040528051906020012003610caf5760019050610cb4565b600090505b92915050565b610d528282604051602401610cd092919061180c565b6040516020818303038152906040527f4b5c4277000000000000000000000000000000000000000000000000000000007bffffffffffffffffffffffffffffffffffffffffffffffffffffffff19166020820180517bffffffffffffffffffffffffffffffffffffffffffffffffffffffff8381831617835250505050610d56565b5050565b610d6d81610d65610d70610d91565b63ffffffff16565b50565b60006a636f6e736f6c652e6c6f679050600080835160208501845afa505050565b610dbd819050919050565b5080546000825590600052602060002090810190610dba9190610dc7565b50565b610dc5611843565b565b5b80821115610de0576000816000905550600101610dc8565b5090565b600081519050919050565b600082825260208201905092915050565b6000819050602082019050919050565b600081519050919050565b600082825260208201905092915050565b60005b83811015610e4a578082015181840152602081019050610e2f565b60008484015250505050565b6000601f19601f8301169050919050565b6000610e7282610e10565b610e7c8185610e1b565b9350610e8c818560208601610e2c565b610e9581610e56565b840191505092915050565b6000610eac8383610e67565b905092915050565b6000602082019050919050565b6000610ecc82610de4565b610ed68185610def565b935083602082028501610ee885610e00565b8060005b85811015610f245784840389528151610f058582610ea0565b9450610f1083610eb4565b925060208a01995050600181019050610eec565b50829750879550505050505092915050565b60006020820190508181036000830152610f508184610ec1565b905092915050565b600081519050919050565b600082825260208201905092915050565b6000819050602082019050919050565b600073ffffffffffffffffffffffffffffffffffffffff82169050919050565b6000610faf82610f84565b9050919050565b610fbf81610fa4565b82525050565b6000610fd18383610fb6565b60208301905092915050565b6000602082019050919050565b6000610ff582610f58565b610fff8185610f63565b935061100a83610f74565b8060005b8381101561103b5781516110228882610fc5565b975061102d83610fdd565b92505060018101905061100e565b5085935050505092915050565b600060208201905081810360008301526110628184610fea565b905092915050565b6000604051905090565b600080fd5b600080fd5b600080fd5b600080fd5b7f4e487b7100000000000000000000000000000000000000000000000000000000600052604160045260246000fd5b6110c082610e56565b810181811067ffffffffffffffff821117156110df576110de611088565b5b80604052505050565b60006110f261106a565b90506110fe82826110b7565b919050565b600067ffffffffffffffff82111561111e5761111d611088565b5b61112782610e56565b9050602081019050919050565b82818337600083830152505050565b600061115661115184611103565b6110e8565b90508281526020810184848401111561117257611171611083565b5b61117d848285611134565b509392505050565b600082601f83011261119a5761119961107e565b5b81356111aa848260208601611143565b91505092915050565b6000602082840312156111c9576111c8611074565b5b600082013567ffffffffffffffff8111156111e7576111e6611079565b5b6111f384828501611185565b91505092915050565b6000819050919050565b7f4e487b7100000000000000000000000000000000000000000000000000000000600052601160045260246000fd5b6000611240826111fc565b915061124b836111fc565b925082820190508082111561126357611262611206565b5b92915050565b7f4e487b7100000000000000000000000000000000000000000000000000000000600052603260045260246000fd5b7f4e487b7100000000000000000000000000000000000000000000000000000000600052602260045260246000fd5b600060028204905060018216806112df57607f821691505b6020821081036112f2576112f1611298565b5b50919050565b600082825260208201905092915050565b7f4e6f2073747564656e747320656e726f6c6c65642e0000000000000000000000600082015250565b600061133f6015836112f8565b915061134a82611309565b602082019050919050565b6000602082019050818103600083015261136e81611332565b9050919050565b7f53747564656e74206e6f7420616c726561647920656e726f6c6c65642e000000600082015250565b60006113ab601d836112f8565b91506113b682611375565b602082019050919050565b600060208201905081810360008301526113da8161139e565b9050919050565b60008190508160005260206000209050919050565b60006020601f8301049050919050565b600082821b905092915050565b6000600883026114437fffffffffffffffffffffffffffffffffffffffffffffffffffffffffffffffff82611406565b61144d8683611406565b95508019841693508086168417925050509392505050565b6000819050919050565b600061148a611485611480846111fc565b611465565b6111fc565b9050919050565b6000819050919050565b6114a48361146f565b6114b86114b082611491565b848454611413565b825550505050565b600090565b6114cd6114c0565b6114d881848461149b565b505050565b5b818110156114fc576114f16000826114c5565b6001810190506114de565b5050565b601f82111561154157611512816113e1565b61151b846113f6565b8101602085101561152a578190505b61153e611536856113f6565b8301826114dd565b50505b505050565b600082821c905092915050565b600061156460001984600802611546565b1980831691505092915050565b600061157d8383611553565b9150826002028217905092915050565b61159682610e10565b67ffffffffffffffff8111156115af576115ae611088565b5b6115b982546112c7565b6115c4828285611500565b600060209050601f8311600181146115f757600084156115e5578287015190505b6115ef8582611571565b865550611657565b601f198416611605866113e1565b60005b8281101561162d57848901518255600182019150602085019450602081019050611608565b8683101561164a5784890151611646601f891682611553565b8355505b6001600288020188555050505b505050505050565b7f73747564656e7420616c726561647920656e726f6c6c65640000000000000000600082015250565b60006116956018836112f8565b91506116a08261165f565b602082019050919050565b600060208201905081810360008301526116c481611688565b9050919050565b60006116d682610e10565b6116e081856112f8565b93506116f0818560208601610e2c565b6116f981610e56565b840191505092915050565b6000602082019050818103600083015261171e81846116cb565b905092915050565b61172f816111fc565b82525050565b6000606082019050818103600083015261174f81866116cb565b905061175e6020830185611726565b818103604083015261177081846116cb565b9050949350505050565b61178381610fa4565b82525050565b600060408201905081810360008301526117a381856116cb565b90506117b2602083018461177a565b9392505050565b600081905092915050565b60006117cf82610e10565b6117d981856117b9565b93506117e9818560208601610e2c565b80840191505092915050565b600061180182846117c4565b915081905092915050565b6000604082019050818103600083015261182681856116cb565b9050818103602083015261183a81846116cb565b90509392505050565b7f4e487b7100000000000000000000000000000000000000000000000000000000600052605160045260246000fdfea2646970667358221220056b2c0c16145b101e04786810735d2fc1078aa312f31ee59623b78471dd703664736f6c63430008180033",
  "linkReferences": {},
  "deployedLinkReferences": {}
}